:0200090080FE77
:04005E00000000227C
:05000300007F19DFFE83
:0100080022D5
:0A0C5A0000007F027E0FDEFEDFFCCB
:010C6400226D
:0A0C650000007F067E5DDEFEDFFC6E
:010C6F002262
:0B0C42000000007F0B7EBEDEFEDFFC2A
:010C4D002284
:080C70007F6C7E91DEFEDFFCCB
:010C78002259
:0E0C080000007F057E347DC3DDFEDEFCDFFADA
:010C160022BB
:0E0C170000007F167E037DE3DDFEDEFCDFFACB
:010C250022AC
:0E0C260000007F2B7E067DCBDDFEDEFCDFFABC
:010C3400229D
:060C790090000102007F63
:0C0C4E00900169EDF0EF7003E4F58022E6
:10036800EFD3940540037FFF22120C79FED3940348
:1003780040037FFF22EF7035EE7008120066F452DA
:10038800935294120C79B401081200664293F45205
:1003980094120C79FEB4020712006642934294EE5E
:1003A800B4030A120066FEF45293EE4294EF64011D
:1003B8007037120C79FE7008120066F4529152924E
:1003C800EEB401081200664291F45292120C79B40C
:1003D800020712006642914292120C79B4030A1283
:1003E8000066FEF45291EE4292EF64027037120CEE
:1003F80079FE7008120066F452955296EEB4010820
:100408001200664295F45296120C79B40207120053
:100418006642954296120C79B4030A120066FEF4FD
:100428005295EE4296EF64037037120C79FE70080D
:10043800120066F452B152B2EEB4010812006642DC
:10044800B1F452B2120C79B4020712006642B142FA
:10045800B2120C79B4030A120066FEF452B1EE42ED
:10046800B2EF64047037120C79FE7008120066F45B
:1004780052B352B4EEB4010812006642B3F452B457
:10048800120C79B4020712006642B342B4120C7916
:10049800B4030A120066FEF452B3EE42B4EF6405E8
:1004A8007037120C79FF7008120066F452C952CAEC
:1004B800EFB4010812006642C9F452CA120C79B4AA
:1004C800020712006642C942CA120C79B4030A1222
:0C04D8000066FFF452C9EF42CA7F012207
:1009C80090014CE0FBA3E0FAA3E0F92290008074C8
:1009D8000A1200DF900081E475F00112014F85F0E2
:1009E80082F583229000021202A97F007E307D2AC0
:1009F8007C000202041200DF900081120117D394D8
:100A080080E5F0940022EF75F083A4247DF974FF4B
:100A180035F0FA7B0122EFF0A3EBF0A3EAF0A3E9AB
:0B0A2800F022900081E4F5F002019B39
:06073D0090014B120A1EA0
:10074300A31202D90000000090014BE024FE7003C5
:100753000208110460030208231209C89000091259
:10076300007FB40104D2AC8002C2AC900007120037
:100773007FB40104D29C8002C29C90000C12007FC3
:10078300B4010543971080035397EF5398BF1200AA
:1007930066B401034398401209C890000112007F18
:1007A300FFB40116439850438E40538EFE53890F76
:1007B300758BB8758DFFC2ABD28EEF640270614347
:1007C3008E01900153F0900155F0900154F0900187
:1007D30059F01209ECEFF404900158F01209C81211
:1007E30009ECC3E49FFFE49EFE74019DFDE49CFCC1
:1007F3007808120296900157EFF07B017A01795342
:100803007F021206217D017F02120B958012759AD9
:1008130050438E0475D7B875D6FF438E1043AF018E
:020823007F0153
:0108250022B0
:100B7500EF24FE600C0470158D993099FDC29980A3
:100B85000CAF058F9BE59A30E1FB539AFD7F01225F
:0C0C3500120A0E900081120117FFAEF0B1
:010C41002290
:100A6C00120A0E90008012007FD394004008900070
:100A7C008074FF1200AC90008012007F7012900006
:100A8C0081120117D39400E5F0940040037F0122FA
:020A9C007FFFDA
:010A9E002235
:06094B0090015A120A1E81
:10095100E4900160F0A3F090015EE07002A3E0700A
:100961002090015B1209CB120066FD605790015A7D
:10097100E0FF120B7590015CE475F001120101803A
:10098100E090015EE07002A3E0603990015AE0FF5F
:10099100A31209CB900160E0FCA3E0F5828C8312E5
:1009A100007FFD120B7590015FE024FFF090015E66
:1009B100E034FFF0900161E004F070C5900160E067
:0609C10004F080BD7F017F
:0109C700220D
:03002300020AD2FC
:0D0AD200C0E0C0F0C083C082C0D075D00865
:100ADF007B017A00790030980FC2981209D4E599FA
:080AEF001209FD4003120A2A5E
:0B0AF700D0D0D082D083D0F0D0E0320D
:03004300020A9F0F
:0D0A9F00C0E0C0F0C083C082C0D075D00898
:100AAC007B017A007983E59A30E010539AFE1209A3
:0B0ABC00D4E59B1209FD4003120A2A3A
:0B0AC700D0D0D082D083D0F0D0E0323D
:1000460042014900004A01080000000000000000CB
:07005600000042010600005A
:10082600900167E0FEA3E090011875F00B12030A31
:10083600EE75F00BA42583F58322F583E4F0A3047B
:10084600F0EF75F00BA42412F582E43401F583E48D
:10085600F0A3F0EF75F00BA422EF75F00BA42418AB
:10086600F582E43401F58322EF75F00BA4241BF521
:1008760082E4340122900167E0FEA3E0222414F50D
:1008860082E43401222416F582E43401F58374FFF0
:10089600F0A3F02290000402007F90000502007F82
:1008A60090000202007F90000102007F9000060285
:0908B600007FE4F0A3F0A3F0229E
:10062100EFD3940440037FFF2212089AFEEF25E0E6
:100631002408F582E43401F583EEF01208A0FEEF00
:1006410025E02409F582E43401F583EEF0EF14602E
:10065100621470030207072402600302073A1208BA
:10066100A67005438E808003538E7F5389F012005C
:100671006614600A14600C14600E2403800D438913
:10068100018008438902800343890312089AF58C8B
:100691001208A0F58AC28D1208ACB40104D2A98057
:1006A10002C2A91208B2B40105D28C02073AC28C67
:1006B10002073A1208A67005438E408003538EBF8D
:1006C10053890F12006614600A14600C14600E2422
:1006D10003800D43891080084389208003438930BA
:1006E10012089AF58D1208A0F58B1208ACB401041A
:1006F100D2AB8002C2AB1208B2B40104D28E800226
:10070100C28EC28F80331208A67005438E04800307
:10071100538EFB12089AF5D61208A0F5D71208AC31
:10072100B4010543AF04800353AFFB1208B2B40117
:0C07310005438E108003538EEF7F0122E1
:100B9500EF24FE600E24027015EDB40103D28C2201
:0F0BA500C28C22EDB40104438E1022538EEF2236
:100BB400E4FF12086EF583E4F0A3120846120883DA
:0E0BC4001208531208641208B80FEFB405E4CB
:010BD2002200
:100B0200E4FF12086EF583E0FCA3E04C70131208B8
:100B12006E1208401208831208531208641208B8B1
:080B2200220FEFB405DC7FFF98
:010B2A0022A8
:10002600C3EF648094855013EF3395E0FE90011B77
:0C00360075F00BEF120833E4F0A3F02289
:100BD300900106E07002A3E0700AD2A3900106F030
:0D0BE300A304F022C2A3E4900106F0A3F0E9
:010BF00022E2
:03006300020BF19C
:100BF100C0E0C083C08290010CE0F5D6A3E0F5D738
:070C0100D082D083D0E03265
:03000B000204E408
:1004E400C0E0C0F0C083C082C0D075D000C000C0DE
:0D04F40001C002C003C004C005C006C0075F
:10050100900167E4F0A3F0900108E0F58CA3E0F519
:100511008A900167E4F0A3F012087BFFC39405EE13
:100521009400400302060690011B75F00BEF1208C0
:1005310033E0FEA3E064014E60030205F5120826D4
:10054100E0FBA3E0FAA3E04A4B70030205F590013A
:100551001675F00BEF120833E0FEA3E0FFF4700212
:10056100EEF46009D3EF9400EE9400406C12087B26
:10057100FF900114120830E0FCA3E0FD9001127518
:10058100F00BEF120833E0FEA3E0C39DEE9C403771
:100591007B007A007900C002120826A3E0FAA3E0EA
:1005A100F5828A83D00212031A12087BFF9001128E
:1005B100120830E4F0A3F090011675F00BEF120869
:1005C1003374FFF5F0800D12087B90011212083090
:1005D100E475F001120101801B12087BFF90011BE1
:1005E100120830E4F0A3F090011875F00BEF120837
:1005F100331208B8900168E004F07006900167E0DA
:0506010004F0020519E0
:10060600D007D006D005D004D003D002D001D00048
:0B061600D0D0D082D083D0F0D0E032F2
:080A3300900165ECF0A3EDF069
:100A3B00E4FF120B02EFF4602712085FEBF0A3EA5E
:100A4B00F0A3E9F0900165E0FCA3E0FDEF75F00B7E
:100A5B00A4120883F583ECF0A3ED12084612088B61
:010A6B002268
:100B2B00900162EBF0A3EAF0A3E9F0D390014AE065
:100B3B009400900149E09400400CA3E024FFF09056
:070B4B000149E034FFF02234
:100B5200E4FF120B02EFF4601912085F74FFF0A3B6
:100B6200740BF0A3742B1208581208831208401257
:020B7200088BEE
:010B7400225E
:10000E00900149EEF0A3EFF0900149E07002A3E0F9
:03001E0070F62257
:030000000208BF34
:0C08BF00787FE4F6D8FD75810F02090671
:10006600BB010689828A83E0225002E722BBFE0298
:09007600E32289828A83E49322CB
:10007F00BB010CE58229F582E5833AF583E0225036
:10008F0006E92582F8E622BBFE06E92582F8E22280
:0D009F00E58229F582E5833AF583E493229A
:1000AC00BB010FF8E58229F582E5833AF583E02858
:1000BC00F0225009C58229F8E58226F622BBFE09FA
:1000CC00C58229F8E22582F222F8EA2583F583E934
:0300DC0093282244
:1000DF00F8BB010DE58229F582E5833AF583E8F057
:1000EF00225006E92582C8F622BBFE05E92582C803
:0200FF00F222EB
:10010100C5F0F8A3E028F0C5F0F8E5821582700289
:060111001583E038F02226
:10011700BB0110E58229F582E5833AF583E0F5F026
:10012700A3E0225009E92582F886F008E622BBFE03
:100137000AE92582F8E2F5F008E222E5832AF58349
:08014700E993F5F0A3E993220E
:10014F00BB010FF8E58229F582E5833AF583E802D2
:10015F00031C5011C58229F808C5F026C6F5F01802
:10016F00C58236C622BBFE15C58229F808E2C5F046
:10017F0025F0F218E2C5823582F2E58222E5832A64
:0C018F00F583E993F5F0A3E993C5F02295
:10019B00F8BB0111E58229F582E5833AF583E8F096
:1001AB00E5F0A3F0225009E92582C8F608A6F02253
:0D01BB00BBFE09E92582C8F2E5F008F2223A
:1001C80075F008758200EF2FFFEE33FECD33CDCCEE
:1001D80033CCC58233C5829BED9AEC99E582984071
:1001E8000CF582EE9BFEED9AFDEC99FC0FD5F0D64E
:1001F800E4CEFBE4CDFAE4CCF9A88222B800C1B978
:100208000059BA002DEC8BF084CFCECDFCE5F0CBB5
:10021800F97818EF2FFFEE33FEED33FDEC33FCEBEE
:1002280033FB10D703994004EB99FB0FD8E5E4F9A9
:10023800FA227818EF2FFFEE33FEED33FDEC33FC96
:10024800C933C910D7059BE99A4007EC9BFCE99A8A
:10025800F90FD8E0E4C9FAE4CCFB2275F010EF2FCF
:10026800FFEE33FEED33FDCC33CCC833C810D707CF
:100278009BEC9AE899400AED9BFDEC9AFCE899F80A
:0E0288000FD5F0DAE4CDFBE4CCFAE4C8F9229D
:10029600E8600FECC313FCED13FDEE13FEEF13FF46
:0302A600D8F1226A
:1002A900BB010DE58229F582E5833AF58302033F17
:1002B9005007E92582F8020332BBFE07E92582F8D7
:1002C90002034BE58229F582E5833AF58302035857
:1002D900A8828583F0D083D0821202F01202F01234
:1002E90002F01202F0E473E493A3C583C5F0C58359
:1002F900C8C582C8F0A3C583C5F0C583C8C582C86F
:0103090022D1
:0C030A00A42582F582E5F03583F58322FE
:060316008A838982E47372
:1008CB00020009E493A3F8E493A34003F68001F23A
:1008DB0008DFF48029E493A3F85407240CC8C3332E
:1008EB00C4540F4420C8834004F456800146F6DFFD
:1008FB00E4800B0102040810204080900046E47E47
:10090B00019360BCA3FF543F30E509541FFEE493F1
:10091B00A360010ECF54C025E060A840B8E493A3B8
:10092B00FAE493A3F8E493A3C8C582C8CAC583CAE3
:10093B00F0A3C8C582C8CAC583CADFE9DEE780BE9B
:01005D0000A2
:10031C00A3F8E0C5F025F0F0E58215827002158394
:06032C00E0C838F0E822F1
:0D033200E6FB08E6F908E6FA08E6CBF8223B
:0C033F00E0F8A3E0F9A3E0FAA3E0FB2241
:0D034B00E2FB08E2F908E2FA08E2CBF82232
:10035800E493F8740193F9740293FA740393FB22FB
:00000001FF
